:100F1B002564003A004B4947414C492020202000D2
:100F2B004B494E534841534841004755414E47208A
:100F3B005A4F55004E45585420504C414E453A207F
:100F4B00202020202020202000424F415244494E97
:100F5B00473A004741544520434C4F53494E472095
:100F6B00494E202020202020005365630054414B24
:100F7B00454F46463A2000202020202020202020CC
:100F8B0020202020202020202020200054494D45C7
:100F9B003A2000504C414E45204E4F573A2000000E
:100FAB00000001000200030004000500060007001A
:100FBB00080009000A000B000C000D000E000F00CA
:100FCB0010001100120013FF0F20FF0F2BFF0F3526
:0C125000020A0000020C0000020800006E
:0C125D00EF4E6007EF1F70F81E80F522B6
:041223007FE87E03DF
:10122700AD07AC06ED4C600E7F707E0012125DEDCF
:071237001D70F11C80EE2286
:0C126900AB07EB60061212231B80F7227B
:0912810030B303C2B322D2B32240
:10123E00D2B27F057E00121227C2B27F057E000257
:02124E00122765
:1011FF00C2B0C2B1C2B275A03812123E75A00C12A5
:10120F00123E12123E75A01412123E12123E75A01B
:04121F000102123E78
:081067008E538F548C558D56F9
:10106F0078577C007D007BFF7A0F79AA7E007F285E
:10107F00120C2CC2B0C2B1E553704AE55424FE6085
:10108F00191460251460312403703AE55625E024C5
:10109F0055F808E62480F5A0802BE55625E0245569
:1010AF00F808E624C0F5A0801CE55625E02455F885
:1010BF0008E62494F5A0800DE55625E02455F808A0
:0A10CF00E624D4F5A012123ED2B0C0
:0110D90022F4
:0C10DA007BFF754F007550017D037C000A
:0A10E6008B4A8A4B894CAF05AE041B
:1010F000E4F551F552AD50AC4F121067AB4AAA4B14
:10110000A94C855282855183120C526022D2B0C202
:10111000B1D2B2F5A07F017E0012125DC2B27F0291
:0F1120007E0012125D0552E55270D1055180CD4F
:01112F00229D
:03117100E4FFFE9A
:081174008C328D338A348B3577
:10117C00754DFF754E0F754F1B8E508F517B007A3E
:10118C0000793612085C7B007A00793685344F85FD
:09119C003550AD33AC320210E60F
:0C127500C2B0C2B1D2B275A00802123E95
:070E2E007F017E0012122774
:100E35001212230509E50970020508C3940AE5089D
:100E450094007B0C7A007D017C00500D1211717BA2
:100E55000D7A007D017C008000AF09AE0812117487
:100E65007BFF7A0F791E754F007550087D017C0058
:100E75001210E6E509643B4508700D050DE50D709A
:100E850002050CE4F508F509C3E50D940AE50C9493
:100E9500007B097A007D017C00500D1211717B0ADF
:100EA5007A007D017C008000AF0DAE0C1211747BC1
:100EB500FF7A0F791E754F0075500B7D017C00126E
:100EC50010E6E50D643B450C700D050BE50B700256
:100ED500050AE4F50AF50BC3E50B940AE50A940047
:100EE5007B067A007D017C005010E4FFFE12117430
:100EF5007B077A007D017C008000AF0BAE0A1211E2
:100F050074E50B6418450A700CF508F509F50CF540
:060F15000DF50AF50B22A8
:081130007D037C00AF23AE2219
:081138008E328F338C348D35AB
:1011400078367C007D007BFF7A0F79D27E007F09A4
:10115000120C2CE53375F003A42436F8860308E658
:10116000FA08E6F9754F0075500CAD35AC34021035
:01117000E698
:100CE000752400752503E4F526F5277D0AFCC374F9
:100CF0000F9DF52BE49CF52A752C00752D05C3ED91
:100D0000952DF52FEC952CF52E7530007531FAE404
:100D1000F522F523C3E5239525E52295244003021A
:100D20000E2D7D021211327BFF7A0F793F754F0035
:100D30007550017D047C001210E6E5232401F5279F
:100D4000E43522F526C3E5279403E52694007D04C7
:100D50007C005006AF27AE268003E4FFFE12113858
:100D6000852A28852B29E5294528600D120E2EE5B8
:100D700029152970F1152880ED7A0F79541210DAAF
:100D8000121130852E28852F29E5294528600D125E
:100D90000E2EE529152970F1152880ED7BFF7A0FBD
:100DA000795E754F007550017D047C001210E67B62
:100DB000FF7A0F7974754F007550127D047C001214
:100DC00010E6852C28852D29E5294528601C120E62
:100DD0002E7B117A007D047C00AF29AE281211749D
:100DE000E529152970E2152880DE8530288531290E
:100DF000E529452860141212817F017E0012122716
:100E0000E529152970EA152880E6C2B37A0F7978AA
:100E10001210DA1211301212237BFF7A0F7982122C
:0D0E200010DC0523E52370020522020D14ED
:010E2D0022A2
:1011A5001211FFE4F5A0D2B37BFF7A0F7997754F43
:1011B500007550017D017C001210E67BFF7A0F79E6
:1011C5009E754F007550017D027C001210E6120CD1
:0311D500E080D5E2
:03000000020FDB11
:0C0FDB00787FE4F6D8FD75817E021022BC
:100B5C00E709F608DFFA8046E709F208DFFA803E7B
:100B6C0088828C83E709F0A3DFFA8032E309F60868
:100B7C00DFFA8078E309F208DFFA807088828C83D0
:100B8C00E309F0A3DFFA806489828A83E0A3F60884
:100B9C00DFFA805889828A83E0A3F208DFFA804C5E
:100BAC0080D280FA80C680D4806980F28033801035
:100BBC0080A680EA809A80A880DA80E280CA80339E
:100BCC0089828A83ECFAE493A3C8C582C8CCC58316
:100BDC00CCF0A3C8C582C8CCC583CCDFE9DEE780E6
:100BEC000D89828A83E493A3F608DFF9ECFAA9F065
:100BFC00EDFB2289828A83ECFAE0A3C8C582C8CCBB
:100C0C00C583CCF0A3C8C582C8CCC583CCDFEADED3
:100C1C00E880DB89828A83E493A3F208DFF980CC35
:100C2C0088F0EF60010E4E60C388F0ED2402B4042E
:100C3C000050B9F582EB2402B4040050AF232345D5
:060C4C008223900BAC7343
:100C5200BB010CE58229F582E5833AF583E0225057
:100C620006E92582F8E622BBFE06E92582F8E222A1
:0D0C7200E58229F582E5833AF583E49322BB
:10080000E559244DF8E6055922784A300702784D1B
:10081000E475F001120CAA020C7F2000EB7F2ED2AF
:10082000008018EF540F2490D43440D4FF30040BD0
:10083000EF24BFB41A0050032461FFE55A6002158B
:100840005A055DE55D7002055C30070D784AE47578
:10085000F001120CAAEF020C980211D87403D2070F
:100860008003E4C207F5598B4A8A4B894CE4F55A58
:10087000F55CF55DE55A60077F2012083B80F57551
:100880005BFFC201C200C202C203C205C206C208A7
:10089000120809FF700D3007057F0012084CAF5D8C
:1008A000AE5C22B4255FC2D5C204120809FF24D071
:1008B000B40A00501A75F00A785A30D50508B6FF08
:1008C0000106C6A426F620D5047002D20380D924DE
:1008D000CFB41A00EF5004C2E5D204020A4CD20190
:1008E00080C6D20080C0D20280BCD2D580BAD205E8
:1008F00080B47F2012083B2002077401B55A0040E3
:10090000F1120800FF12083B020874D208D20680D8
:1009100095120800FB120800FA120800F94A4B7001
:1009200006791D7A0B7BFF20022EE55A602A7E0095
:100930008E82758300120C5260060EEE655B70F0BD
:10094000C2D5EBC0E0EAC0E0E9C0E0EE120A93D005
:10095000E0F9D0E0FAD0E0FB120C7FFF60AAEBC018
:10096000E0EAC0E0E9C0E012083BD0E02401F9D0A1
:10097000E03400FAD0E0FBE55B0460DCD55BD980B5
:10098000877BFF7A0A798FD202809C791080027966
:1009900008C206C2088008D2D5790A8004790AC242
:1009A000D5E55B047002F55BE4FAFDFEFF1208007A
:1009B000FC7B08200113120800FD7B1030000A1296
:1009C0000800FE120800FF7B20EC3382D592D55040
:1009D00013C3E43000069FFFE49EFEE42001039D64
:1009E000FDE49CFCE4CBF8C201EC700CCFCECDCC86
:1009F000E824F8F870F38017C3EF33FFEE33FEED11
:100A000033FDEC33FCEB33FB994002FB0FD8E9EBF1
:100A1000300105F8D0E0C448B201C0E00AEC4D4E08
:100A20004F78207B0070C2EAB55B0040BCC0E0128A
:100A30000A95D0F0D0E0200104C4C0E0C4B201C0E7
:100A4000F0120824D0F0D5F0EB020874120CBA09A9
:100A50001153098B5808E24C08DE42098F4F099761
:0F0A60004409974908F743099D550981460981C3
:100A6F00450981470B3D5008E62D08EA2E090D2B4D
:100A7F0008EE23090B200B262A08A64800000905BB
:100A8F003F3F3F00790AA2D5200314300509B91062
:100A9F00020404B9080104A2D52006025001042063
:100AAF0002689202B55A005034C0E07F203003191B
:100ABF007F30A20272067205500F120AECC202C2F8
:100ACF0006C205C2087F30800F300503E9C0E0126F
:100ADF00083B300503D0E0F9D0E0B55ACC3005170C
:100AEF007F30B9100C12083B7F583004077F788095
:100AFF0003B9080312083B3002057F2D02083B7F24
:100B0F00202008F87F2B2006F322920280CF286E38
:100B1F00756C6C2900D2011208003001F8C20178FF
:100B2F005A30D50108F60208A62D5043495812082D
:100B3F00002403B405004001E4900B389312082CF5
:0D0B4F00743A12082CD203755A0402098B67
:100FE7000211A5E493A3F8E493A34003F68001F26A
:100FF70008DFF48029E493A3F85407240CC8C3330B
:10100700C4540F4420C8834004F456800146F6DFD9
:10101700E4800B0102040810204080901250E47E07
:10102700019360BCA3FF543F30E509541FFEE493CE
:10103700A360010ECF54C025E060A840B8E493A395
:10104700FAE493A3F8E493A3C8C582C8CAC583CAC0
:10105700F0A3C8C582C8CAC583CADFE9DEE780BE78
:01125C000091
:100C7F00BB010689828A83E0225002E722BBFE0273
:090C8F00E32289828A83E49322A6
:100C9800BB010689828A83F0225002F722BBFE013B
:020CA800F32235
:100CAA00FAE6FB0808E6F925F0F618E6CA3AF6224B
:100CBA00D083D082F8E4937012740193700DA3A3C9
:100CCA0093F8740193F5828883E4737402936860DD
:060CDA00EFA3A3A380DFDD
:1011D800EFB40A07740D1211E3740A309811A89934
:1011E800B8130CC2983098FDA899C298B811F63077
:0711F80099FDC299F599224F
:00000001FF
