:100F0F002564003A004B4947414C492020202000DE
:100F1F004B494E534841534841004755414E472096
:100F2F005A4F55004E45585420504C414E453A208B
:100F3F00202020202020202000424F415244494EA3
:100F4F00473A004741544520434C4F53494E4720A1
:100F5F00494E202020202020005365630054414B30
:100F6F00454F46463A2000202020202020202020D8
:100F7F0020202020202020202020200054494D45D3
:100F8F003A2000504C414E45204E4F573A2000001A
:100F9F000000010002000300040005000600070026
:100FAF00080009000A000B000C000D000E000F00D6
:100FBF0010001100120013FF0F14FF0F1FFF0F2956
:0C124400020A0000020C0000020800007A
:0C125100EF4E6007EF1F70F81E80F522C2
:041217007FE87E03EB
:10121B00AD07AC06ED4C600E7F707E00121251EDE7
:07122B001D70F11C80EE2292
:0C125D00AB07EB60061212171B80F72293
:0912750030B303C2B322D2B3224C
:10123200D2B27F057E0012121BC2B27F057E00026F
:02124200121B7D
:1011F300C2B0C2B1C2B275A03812123275A00C12BD
:10120300123212123275A01412123212123275A057
:041213000102123290
:08105B008E518F528C538D540D
:1010630078557C007D007BFF7A0F799E7E007F2878
:10107300120C2CC2B0C2B1E551704AE55224FE6095
:10108300191460251460312403703AE55425E024D3
:1010930053F808E62480F5A0802BE55425E024537B
:1010A300F808E624C0F5A0801CE55425E02453F895
:1010B30008E62494F5A0800DE55425E02453F808B0
:0A10C300E624D4F5A0121232D2B0D8
:0110CD002200
:0C10CE007BFF754D00754E017D037C001A
:0A10DA008B488A49894AAF05AE042D
:1010E400E4F54FF550AD4EAC4D12105BAB48AA4938
:1010F400A94A855082854F83120C526022D2B0C215
:10110400B1D2B2F5A07F017E00121251C2B27F02A9
:0F1114007E001212510550E55070D1054F80CD6D
:0111230022A9
:03116500E4FFFEA6
:081168008C308D318A328B338B
:10117000754BFF754C0F754D0F8E4E8F4F7B007A60
:1011800000793412085C7B007A00793485324D8511
:09119000334EAD31AC300210DA2F
:0C126900C2B0C2B1D2B275A008021232AD
:070E22007F017E0012121B8C
:100E29001212170509E50970020508C3940AE508B5
:100E390094007B0C7A007D017C00500D1211657BBA
:100E49000D7A007D017C008000AF09AE081211689F
:100E59007BFF7A0F7912754D00754E087D017C0074
:100E69001210DAE509643B4508700D050DE50D70B2
:100E790002050CE4F508F509C3E50D940AE50C949F
:100E8900007B097A007D017C00500D1211657B0AF7
:100E99007A007D017C008000AF0DAE0C1211687BD9
:100EA900FF7A0F7912754D00754E0B7D017C00128A
:100EB90010DAE50D643B450C700D050BE50B70026E
:100EC900050AE4F50AF50BC3E50B940AE50A940053
:100ED9007B067A007D017C005010E4FFFE12116848
:100EE9007B077A007D017C008000AF0BAE0A1211EE
:100EF90068E50B6418450A700CF508F509F50CF559
:060F09000DF50AF50B22B4
:081124007D037C00AF23AE2225
:08112C008E308F318C328D33BF
:1011340078347C007D007BFF7A0F79C67E007F09BE
:10114400120C2CE53175F003A42434F8860308E668
:10115400FA08E6F9754D00754E0CAD33AC32021049
:01116400DAB0
:100CE000752400752503E4F526F527C3740F940ACF
:100CF000F52BE49400F52A752C00752D05752E0052
:100D0000752FFAE4F522F523C3E5239525E5229511
:100D1000244003020E217D021211267BFF7A0F79F7
:100D200033754D00754E017D047C001210DAE52309
:100D30002401F527E43522F526C3E5279403E526AB
:100D400094007D047C005006AF27AE268003E4FFAC
:100D5000FE12112C852A28852B29E5294528600DAE
:100D6000120E22E529152970F1152880ED7A0F79E8
:100D7000481210CE121124852A28852B29E52945F1
:100D800028600D120E22E529152970F1152880ED35
:100D90007BFF7A0F7952754D00754E017D047C0002
:100DA0001210DA7BFF7A0F7968754D00754E127D4F
:100DB000047C001210DA852C28852D29E529452888
:100DC000601C120E227B117A007D047C00AF29AEDC
:100DD00028121168E529152970E2152880DE852E74
:100DE00028852F29E529452860141212757F017E78
:100DF0000012121BE529152970EA152880E6C2B3F6
:100E00007A0F796C1210CE1211241212177BFF7A0E
:100E10000F79761210D00523E52370020522020D0A
:010E200008C9
:010E210022AE
:101199001211F3E4F5A0D2B37BFF7A0F798B754D69
:1011A90000754E017D017C001210DA7BFF7A0F7900
:1011B90092754D00754E017D027C001210DA120CF9
:0311C900E080D5EE
:03000000020FCF1D
:0C0FCF00787FE4F6D8FD75817C021016D6
:100B5C00E709F608DFFA8046E709F208DFFA803E7B
:100B6C0088828C83E709F0A3DFFA8032E309F60868
:100B7C00DFFA8078E309F208DFFA807088828C83D0
:100B8C00E309F0A3DFFA806489828A83E0A3F60884
:100B9C00DFFA805889828A83E0A3F208DFFA804C5E
:100BAC0080D280FA80C680D4806980F28033801035
:100BBC0080A680EA809A80A880DA80E280CA80339E
:100BCC0089828A83ECFAE493A3C8C582C8CCC58316
:100BDC00CCF0A3C8C582C8CCC583CCDFE9DEE780E6
:100BEC000D89828A83E493A3F608DFF9ECFAA9F065
:100BFC00EDFB2289828A83ECFAE0A3C8C582C8CCBB
:100C0C00C583CCF0A3C8C582C8CCC583CCDFEADED3
:100C1C00E880DB89828A83E493A3F208DFF980CC35
:100C2C0088F0EF60010E4E60C388F0ED2402B4042E
:100C3C000050B9F582EB2402B4040050AF232345D5
:060C4C008223900BAC7343
:100C5200BB010CE58229F582E5833AF583E0225057
:100C620006E92582F8E622BBFE06E92582F8E222A1
:0D0C7200E58229F582E5833AF583E49322BB
:10080000E557244BF8E60557227848300702784B25
:10081000E475F001120CAA020C7F2000EB7F2ED2AF
:10082000008018EF540F2490D43440D4FF30040BD0
:10083000EF24BFB41A0050032461FFE5586002158D
:1008400058055BE55B7002055A30070D7848E47582
:10085000F001120CAAEF020C980211CC7403D2071B
:100860008003E4C207F5578B488A49894AE4F55862
:10087000F55AF55BE55860077F2012083B80F57557
:1008800059FFC201C200C202C203C205C206C208A9
:10089000120809FF700D3007057F0012084CAF5B8E
:1008A000AE5A22B4255FC2D5C204120809FF24D073
:1008B000B40A00501A75F00A785830D50508B6FF0A
:1008C0000106C6A426F620D5047002D20380D924DE
:1008D000CFB41A00EF5004C2E5D204020A4CD20190
:1008E00080C6D20080C0D20280BCD2D580BAD205E8
:1008F00080B47F2012083B2002077401B5580040E5
:10090000F1120800FF12083B020874D208D20680D8
:1009100095120800FB120800FA120800F94A4B7001
:1009200006791D7A0B7BFF20022EE558602A7E0097
:100930008E82758300120C5260060EEE655970F0BF
:10094000C2D5EBC0E0EAC0E0E9C0E0EE120A93D005
:10095000E0F9D0E0FAD0E0FB120C7FFF60AAEBC018
:10096000E0EAC0E0E9C0E012083BD0E02401F9D0A1
:10097000E03400FAD0E0FBE5590460DCD559D980B9
:10098000877BFF7A0A798FD202809C791080027966
:1009900008C206C2088008D2D5790A8004790AC242
:1009A000D5E559047002F559E4FAFDFEFF1208007E
:1009B000FC7B08200113120800FD7B1030000A1296
:1009C0000800FE120800FF7B20EC3382D592D55040
:1009D00013C3E43000069FFFE49EFEE42001039D64
:1009E000FDE49CFCE4CBF8C201EC700CCFCECDCC86
:1009F000E824F8F870F38017C3EF33FFEE33FEED11
:100A000033FDEC33FCEB33FB994002FB0FD8E9EBF1
:100A1000300105F8D0E0C448B201C0E00AEC4D4E08
:100A20004F78207B0070C2EAB5590040BCC0E0128C
:100A30000A95D0F0D0E0200104C4C0E0C4B201C0E7
:100A4000F0120824D0F0D5F0EB020874120CBA09A9
:100A50001153098B5808E24C08DE42098F4F099761
:0F0A60004409974908F743099D550981460981C3
:100A6F00450981470B3D5008E62D08EA2E090D2B4D
:100A7F0008EE23090B200B262A08A64800000905BB
:100A8F003F3F3F00790AA2D5200314300509B91062
:100A9F00020404B9080104A2D52006025001042063
:100AAF0002689202B558005034C0E07F203003191D
:100ABF007F30A20272067205500F120AECC202C2F8
:100ACF0006C205C2087F30800F300503E9C0E0126F
:100ADF00083B300503D0E0F9D0E0B558CC3005170E
:100AEF007F30B9100C12083B7F583004077F788095
:100AFF0003B9080312083B3002057F2D02083B7F24
:100B0F00202008F87F2B2006F322920280CF286E38
:100B1F00756C6C2900D2011208003001F8C20178FF
:100B2F005830D50108F60208A62D5043495812082F
:100B3F00002403B405004001E4900B389312082CF5
:0D0B4F00743A12082CD20375580402098B69
:100FDB00021199E493A3F8E493A34003F68001F282
:100FEB0008DFF48029E493A3F85407240CC8C33317
:100FFB00C4540F4420C8834004F456800146F6DFE6
:10100B00E4800B0102040810204080901244E47E1F
:10101B00019360BCA3FF543F30E509541FFEE493DA
:10102B00A360010ECF54C025E060A840B8E493A3A1
:10103B00FAE493A3F8E493A3C8C582C8CAC583CACC
:10104B00F0A3C8C582C8CAC583CADFE9DEE780BE84
:01125000009D
:100C7F00BB010689828A83E0225002E722BBFE0273
:090C8F00E32289828A83E49322A6
:100C9800BB010689828A83F0225002F722BBFE013B
:020CA800F32235
:100CAA00FAE6FB0808E6F925F0F618E6CA3AF6224B
:100CBA00D083D082F8E4937012740193700DA3A3C9
:100CCA0093F8740193F5828883E4737402936860DD
:060CDA00EFA3A3A380DFDD
:1011CC00EFB40A07740D1211D7740A309811A8994C
:1011DC00B8130CC2983098FDA899C298B811F63083
:0711EC0099FDC299F599225B
:00000001FF
